:100000000C9474000C94A5000C94A5000C94A5000D
:100010000C94A5000C94A5000C94A5000C94A500CC
:100020000C94A5000C94A5000C94A5000C94A500BC
:100030000C94A5000C94A5000C94A5000C94A500AC
:100040000C94A5000C94A5000C94A5000C94A5009C
:100050000C94A5000C94A5000C94A5000C94CD0064
:100060000C94A5000C947B020C9453030C94A500F3
:100070000C94A5000C94A5000C94A5000C94A5006C
:100080000C94A5000C94A5000C94A5000C94A5005C
:100090000C94A9020C9493030C94A5000C94A50055
:1000A0000C94A5000C94A5000C94A5000C94A5003C
:1000B0000C94A5000C94A5000C94A5000C94A5002C
:1000C0000C94A5000C94A5000C94A5000C94D702E8
:1000D0000C94D3030C94A5000C9405030C94130406
:1000E0000C94A500C900D30411241FBECFEFD1E2A8
:1000F000DEBFCDBF00E00CBF12E0A0E0B2E0ECE25A
:10010000FEE000E00BBF02C007900D92A031B107E6
:10011000D9F714E0A0E1B2E001C01D92A73BB107FE
:10012000E1F710E0C8EED0E000E006C02297010938
:10013000FE010BBF0E941007C43ED10780E00807F4
:10014000A9F70E94F1050C94EB060C94000040E026
:1001500052EC61E070E088E792E00E94530468EEA0
:1001600073E080E090E00C94410180E192E00E9415
:10017000DB0668EE73E080E090E00E94410180E1E0
:1001800092E00E94E30668EE73E080E090E00C9459
:10019000410180E192E00C94D5061F920F920FB6B8
:1001A0000F9211242F933F938F939F93AF93BF93FD
:1001B0008091120290911302A0911402B091150245
:1001C00030911A02232F2D5F2D3720F40196A11DA7
:1001D000B11D05C0232F2A570296A11DB11D2093E2
:1001E0001A028093120290931302A0931402B09308
:1001F00015028091160290911702A0911802B091F9
:1002000019020196A11DB11D809316029093170249
:10021000A0931802B0931902BF91AF919F918F9153
:100220003F912F910F900FBE0F901F9018950F9335
:100230001F939FB7F8940091160210911702209116
:1002400018023091190286B5A89B06C08F3F21F095
:100250000F5F1F4F2F4F3F4F9FBF322F212F102F68
:100260000027080F111D211D311D42E0000F111F35
:10027000221F331F4A95D1F7B801C9011F910F9171
:100280000895CF92DF92EF92FF92CF93DF936B01AD
:100290007C010E941701EB010EC00E9417016C1B2C
:1002A0007D0B683E734038F081E0C81AD108E10840
:1002B000F108C851DC4FC114D104E104F10469F71D
:1002C000DF91CF91FF90EF90DF90CF9008957894D9
:1002D00084B5826084BD84B5816084BD85B582604B
:1002E00085BD85B5816085BDEEE6F0E080818160E9
:1002F0008083E1E8F0E010828081826080838081E9
:1003000081608083E0E8F0E0808181608083E1EBC0
:10031000F0E0808184608083E0EBF0E080818160A8
:100320008083E1E9F0E08081826080838081816068
:100330008083E0E9F0E0808181608083E1EAF0E0A1
:10034000808182608083808181608083E0EAF0E048
:10035000808181608083E1E2F1E08081826080833E
:10036000808181608083E0E2F1E080818160808330
:10037000EAE7F0E08081846080838081826080830E
:100380008081816080838081806880831092C10039
:100390000895FC0184859585FC01E05CFF4F208178
:1003A0003181FC01EE5BFF4F80819181281B390B6D
:1003B0002F733327C9010895FC0184859585FC01BD
:1003C000E05CFF4F40815181FC01EE5BFF4F2081DB
:1003D00031814217530741F00190F081E02DE80F81
:1003E000F91F208130E002C02FEF3FEFC9010895CF
:1003F000FC0184859585FC01E05CFF4F40815181C3
:10040000FC01EE5BFF4F208131814217530771F0F1
:10041000A081B181A80FB91F2C9180819181019693
:100420008F7399279183808330E002C02FEF3FEFD5
:10043000C9010895FC0186859785FC01E05CFF4FAA
:10044000DC01AE5BBF4F408151812D913C911197F2
:1004500042175307C1F70895CF93DF93FC01268518
:100460003785D901A05CBF4F8D919C911197019662
:100470008F739927E901CE5BDF4F4881598184173B
:100480009507D9F30D90BC91A02DA20FB31F6C93CB
:10049000A685B785A05CBF4F11969C938E93A689C5
:1004A000B7892C9181E090E0058C02C0880F991FDC
:1004B0000A94E2F7282B2C9381E090E0DF91CF9112
:1004C0000895FB01E05CFF4F208131812F5F3F4F9A
:1004D0002F733327DB01AE5BBF4F4D915C91241727
:1004E000350739F0A081B181A60FB71F8C933183F6
:1004F0002083089508951F920F920FB60F92112432
:100500000BB60F921BBE2F933F934F935F936F9346
:100510007F938F939F93AF93BF93EF93FF938091BC
:10052000C60063E774E00E946102FF91EF91BF9102
:10053000AF919F918F917F916F915F914F913F917B
:100540002F910F900BBE0F900FBE0F901F9018951C
:1005500008951F920F920FB60F9211240BB60F92AF
:100560001BBE2F933F934F935F936F937F938F9314
:100570009F93AF93BF93EF93FF938091CE006BEE69
:1005800073E00E946102FF91EF91BF91AF919F9143
:100590008F917F916F915F914F913F912F910F902C
:1005A0000BBE0F900FBE0F901F90189508951F92CD
:1005B0000F920FB60F9211240BB60F921BBE2F9302
:1005C0003F934F935F936F937F938F939F93AF93DB
:1005D000BF93EF93FF938091D60063E673E00E9490
:1005E0006102FF91EF91BF91AF919F918F917F91A8
:1005F0006F915F914F913F912F910F900BBE0F9094
:100600000FBE0F901F90189508951F920F920FB66E
:100610000F9211240BB60F921BBE2F933F934F9353
:100620005F936F937F938F939F93AF93BF93EF935A
:10063000FF93809136016BED72E00E946102FF91A1
:10064000EF91BF91AF919F918F917F916F915F914A
:100650004F913F912F910F900BBE0F900FBE0F90B7
:100660001F90189588E792E00E94C901892B11F02C
:100670000E947A0289E592E00E94C901892B11F05B
:100680000E94A8028AE392E00E94C901892B11F01E
:100690000E94D6028BE192E00E94C901892B11F0E1
:1006A0000C94040308951F920F920FB60F92112419
:1006B0000BB60F921BBE2F933F938F939F93EF9395
:1006C000FF9320916F043091700480917104909198
:1006D00072042817390731F48091C1008F7D80930F
:1006E000C10014C0E0917104F0917204E15DFB4F10
:1006F0002081809171049091720401968F739927E3
:1007000090937204809371042093C600FF91EF913F
:100710009F918F913F912F910F900BBE0F900FBE25
:100720000F901F9018951F920F920FB60F921124E1
:100730000BB60F921BBE2F933F938F939F93EF9314
:10074000FF932091E7033091E8038091E9039091B2
:10075000EA032817390731F48091C9008F7D80930F
:10076000C90014C0E091E903F091EA03E955FC4F98
:1007700020818091E9039091EA0301968F73992774
:100780009093EA038093E9032093CE00FF91EF91C9
:100790009F918F913F912F910F900BBE0F900FBEA5
:1007A0000F901F9018951F920F920FB60F92112461
:1007B0000BB60F921BBE2F933F938F939F93EF9394
:1007C000FF9320915F0330916003809161039091CA
:1007D00062032817390731F48091D1008F7D80930F
:1007E000D10014C0E0916103F0916203E15EFC4F1F
:1007F0002081809161039091620301968F73992704
:1008000090936203809361032093D600FF91EF9150
:100810009F918F913F912F910F900BBE0F900FBE24
:100820000F901F9018951F920F920FB60F921124E0
:100830000BB60F921BBE2F933F938F939F93EF9313
:10084000FF932091D7023091D8028091D9029091E4
:10085000DA022817390731F4809131018F7D8093B6
:10086000310114C0E091D902F091DA02E956FD4F4E
:1008700020818091D9029091DA0201968F73992795
:100880009093DA028093D90220933601FF91EF9181
:100890009F918F913F912F910F900BBE0F900FBEA4
:1008A0000F901F901895CF92DF92EF92FF92CF9307
:1008B000DF93EC016A017B01411581EE5807610568
:1008C0007105F9F0EC89FD8981E090E00E8C02C0A1
:1008D000880F991F0A94E2F7808360E079E08DE346
:1008E00090E0A70196010E94EE06215031094109CE
:1008F00051095695479537952795211580E1380779
:1009000098F0EC89FD89108260E874E88EE190E04F
:10091000A70196010E94EE062150310941095109B3
:100920005695479537952795E889F9893083EA895F
:10093000FB892083EE89FF89408181E090E09C0162
:100940000A8C02C0220F331F0A94E2F7422B408325
:10095000EE89FF8940819C010B8C02C0220F331F5E
:100960000A94E2F7422B4083EE89FF8940819C0183
:100970000C8C02C0220F331F0A94E2F7422B4083F3
:10098000EE89FF8920810D8C02C0880F991F0A947F
:10099000E2F7809582238083DF91CF91FF90EF90E3
:1009A000DF90CF900895CF9310927B0210927A023D
:1009B00088EE93E0A0E0B0E080937C0290937D020B
:1009C000A0937E02B0937F0224E032E0309379025C
:1009D0002093780243E754E05093850240938402C9
:1009E0004FE254E0509387024093860245EC50E07A
:1009F000509389024093880244EC50E050938B025C
:100A000040938A0240EC50E050938D0240938C0258
:100A100041EC50E050938F0240938E0246EC50E040
:100A20005093910240939002C4E0C0939202F3E08D
:100A3000F0939302E7E0E093940275E070939502DF
:100A400061E06093960210925C0210925B028093C8
:100A50005D0290935E02A0935F02B09360023093B8
:100A60005A02209359024BEE53E050936602409392
:100A7000650247EA53E050936802409367024DECE9
:100A800050E050936A02409369024CEC50E050935E
:100A90006C0240936B0248EC50E050936E0240931E
:100AA0006D0249EC50E05093700240936F024EEC9F
:100AB00050E05093720240937102C0937302F0931E
:100AC0007402E0937502709376026093770210923D
:100AD0003D0210923C0280933E0290933F02A0930D
:100AE0004002B093410230933B0220933A0243E626
:100AF00053E050934702409346024FE153E0509336
:100B000049024093480245ED50E050934B02409318
:100B10004A0244ED50E050934D0240934C0240EDA8
:100B200050E050934F0240934E0241ED50E05093FD
:100B300051024093500246ED50E0509353024093CF
:100B40005202C0935402F0935502E0935602709300
:100B500057026093580210921E0210921D02809359
:100B60001F0290932002A0932102B093220230939F
:100B70001C0220931B028BED92E09093280280933D
:100B8000270287E992E090932A028093290285E365
:100B900091E090932C0280932B0284E391E0909358
:100BA0002E0280932D0280E391E090933002809397
:100BB0002F0281E391E0909332028093310286E329
:100BC00091E09093340280933302C0933502F09306
:100BD0003602E09337027093380260933902CF9166
:100BE00008950E9467010E94A700C2E3D3E00E941B
:100BF000B5002097E1F30E943203F9CFCF92DF9244
:100C0000EF92FF920F931F93CF93DF936C01EB0151
:100C10007A01E60EF71E00E010E00BC06991D601E4
:100C2000ED91FC910190F081E02DC6011995080F1E
:100C3000191FCE15DF0591F7C801DF91CF911F91E4
:100C40000F91FF90EF90DF90CF900895DB010D9012
:100C50000020E9F7AD0141505109461B570BDC015B
:100C6000ED91FC910280F381E02D1994DC01ED916E
:100C7000FC910190F081E02D19940F931F93CF9375
:100C8000DF93EC016DE00E9436068C016AE0CE0134
:100C90000E9436069C01200F311FC901DF91CF91C0
:100CA0001F910F9108955F926F927F928F929F9202
:100CB000AF92BF92CF92DF92EF92FF920F931F936A
:100CC000CF93DF93CDB7DEB7A1970FB6F894DEBF11
:100CD0000FBECDBF3C016A017B01522E19A281E0FB
:100CE000821710F08AE0582E8E010F5D1F4F852C61
:100CF000912CA12CB12CC701B601A50194010E9431
:100D0000EE068C2D529E80191124015011098A3053
:100D100014F4805D01C0895CF801808369017A0167
:100D2000C114D104E104F10431F7B801C3010E94F8
:100D30002606A1960FB6F894DEBF0FBECDBFDF9199
:100D4000CF911F910F91FF90EF90DF90CF90BF90C8
:100D5000AF909F908F907F906F905F900895211536
:100D6000310541F4DC01ED91FC910190F081E02D21
:100D7000642F19940C9453060F931F93CF93DF9312
:100D8000EC019A01462F50E060E070E00E94AF064F
:100D90008C01CE010E943D069801280F391FC90120
:100DA000DF91CF911F910F91089522E0FC012083E4
:100DB00023E0218308954AE050E0FC01608188E748
:100DC00092E00C94BC064AE050E0FC01618188E7A7
:100DD00092E00C94BC06F8940C941407A1E21A2E2D
:100DE000AA1BBB1BFD010DC0AA1FBB1FEE1FFF1FCF
:100DF000A217B307E407F50720F0A21BB30BE40B1F
:100E0000F50B661F771F881F991F1A9469F7609565
:100E10007095809590959B01AC01BD01CF0108951F
:0C0E20000790F691E02D1994F894FFCF94
:100E2C00000000002C02FE05C901F801DC011A02C9
:00000001FF
