:100000000C94D9010C940A020C940A020C940A0272
:100010000C940A020C940A020C940A020C940A0230
:100020000C940A020C940A020C940A020C940A0220
:100030000C940A020C940A020C940A020C940A0210
:100040000C940A020C940A020C940A020C940A0200
:100050000C940A020C940A020C940A020C94B70342
:100060000C940A020C944A060C9422070C940A027F
:100070000C940A020C940A020C940A020C940A02D0
:100080000C940A020C940A020C940A020C940A02C0
:100090000C9478060C9462070C940A020C940A02E1
:1000A0000C940A020C940A020C940A020C940A02A0
:1000B0000C940A020C940A020C940A020C940A0290
:1000C0000C940A020C940A020C940A020C94A606E0
:1000D0000C94A2070C940A020C94D4060C94E20728
:1000E0000C940A020000090A02080B0C0D07060313
:1000F00004010000000000000000000000000000FB
:1001000000000000000000000000000000000000EF
:1001100011100F00000000000000000000000000AF
:100120000000000000000000000001021020200874
:100130000810204010204080020102010804020142
:1001400001020408102040808040201008040201B1
:10015000800402018040201008040201080402010A
:100160000102040810204080010204081020408091
:1001700005050505070508080808020202020A0A23
:100180000808040404040101010101010101030341
:10019000030303030303040707070C0C0C0C0C0CEC
:1001A0000C0C0202020206060606060606060B0BE9
:1001B0000B0B0B0B0B0B00002200250028002B0063
:1001C0002E003100340002010000050108010B017E
:1001D00000002100240027002A002D0030003300F9
:1001E00001010000040107010A0153544154555311
:1001F0000909203D203078253032782052585F445C
:10020000523D25782054585F44533D2578204D4178
:10021000585F52543D25782052585F505F4E4F3DF5
:1002200025782054585F46554C4C3D25780D0A00E2
:100230004F4253455256455F54583D253032783A27
:1002400020504F4C535F434E543D2578204152433C
:100250005F434E543D25780D0A0025530925632040
:100260003D0020307825303278000D0A00255309F2
:100270002563203D002030780025303278000D0ABB
:100280000052585F414444525F50302D3100525863
:100290005F414444525F50322D350054585F414411
:1002A00044520052585F50575F50302D3600454E33
:1002B0005F414100454E5F5258414444520052460E
:1002C0005F43480052465F534554555000434F4EDC
:1002D0004649470044594E50442F464541545552D3
:1002E0004500510357035D034461746120526174FA
:1002F0006509203D2025530D0A0065036E034D6FEF
:1003000064656C0909203D2025530D0A007803819E
:10031000038803435243204C656E67746809203D8F
:100320002025530D0A00900397039E03A603504116
:1003300020506F77657209203D2025530D0A00007B
:1003400001020304050A0B0C0D0E0F1112131415F4
:1003500016314D42505300324D4250530032353029
:100360004B425053006E524632344C3031006E5284
:100370004632344C30312B0044697361626C6564E1
:10038000003820626974730031362062697473002A
:1003900050415F4D494E0050415F4C4F5700504116
:1003A0005F484947480050415F4D41580000B10344
:1003B000A20811241FBECFEFD1E2DEBFCDBF00E007
:1003C0000CBF13E0A0E0B2E0E0EBFAE200E00BBF0C
:1003D00002C007900D92A63EB107D9F716E0A6EE2F
:1003E000B3E001C01D92A63AB107E1F713E0C2EBFA
:1003F000D3E000E006C022970109FE010BBF0E9476
:100400005215CE3AD10780E00807A9F70E94C0092B
:100410000C94BB110C940000CF93C82F682F8DE56E
:1004200094E00E94FB052C2F332727FD30958C2F5D
:10043000932FCF91089560E070E08CE092E00C94EF
:10044000D81181E090E090930802809307026FE05A
:1004500072E086EE93E00E94970D45E152E061E084
:1004600086EE93E00C94B10D61E088E00E942905CE
:1004700060E088E00E94610540E051EE60E070E0DD
:100480008DE594E00E9422080E941B028BE192E01D
:100490009F938F930E942312E0910702F09108022C
:1004A000EE0FFF1FE75FFD4F81818F9380818F9358
:1004B0008DE392E09F938F930E94231288E492E051
:1004C0009F938F930E94231286EE93E00E94270F42
:1004D00061E086EE93E00E94BC0E86EE93E00E94FF
:1004E000660E4FE060E086EE93E00E943E1061E011
:1004F00086EE93E00E94B80C65E172E086EE93E030
:100500000E94970D4FE052E061E086EE93E00E947A
:10051000B10D86EE93E00E94210E86EE93E00E94DC
:10052000F30C86EE93E00E949D0F8DB79EB7089660
:100530000FB6F8949EBF0FBE8DBF0C942102CF92D0
:10054000DF92EF92FF920F931F93CF93DF931F924F
:100550001F92CDB7DEB780910702909108020197F4
:1005600009F078C086EE93E00E94BE0C80910602EE
:100570001F928F9380E892E09F938F930E942312A3
:100580000E9401046B017C0141E066E072E086EEAE
:1005900093E00E943F0D0F900F900F900F908823D3
:1005A00009F44AC086EE93E00E94870D81113BC09A
:1005B0000E9401046C197D098E099F099F938F93F6
:1005C0007F936F938CE992E09F938F930E94231205
:1005D0000F900F900F900F900F900F903BC041E045
:1005E000BE016F5F7F4F86EE93E00E948B0D0E94ED
:1005F00001046C197D098E099F099F938F937F9346
:100600006F9389811F928F931F930F930E942312E0
:10061000809106028F5F809306020FB6F894DEBFCA
:100620000FBECDBF02C005ED12E086EE93E00E9442
:10063000870D8111D4CF0EC08BE093E09F938F93F1
:100640000E94231268EE73E080E090E00E942B0489
:100650000F900F908091070290910802029749F540
:100660001DC041E0BE016F5F7F4F86EE93E00E94A8
:100670008B0D21E0AE014F5F5F4F6A8186EE93E004
:100680000E94840E89811F928F931F930F930E9463
:1006900023120F900F900F900F9002C00DE113E006
:1006A000BE016E5F7F4F86EE93E00E94420D811186
:1006B000D8CF8DE594E00E949805892B09F446C0B7
:1006C00081E393E09F938F930E9423128DE594E042
:1006D0000E94C7050E94BE110F900F90843579F4D7
:1006E0008091070290910802029781F584E493E0DB
:1006F0009F938F930E9423120E94210225C082356E
:1007000029F580910702909108020197F9F480E899
:1007100093E09F938F930E94231282E090E0909346
:1007200008028093070265E172E086EE93E00E9482
:10073000970D4FE052E061E086EE93E00E94B10D2C
:1007400086EE93E00E94210E0F900F900F900F9075
:10075000DF91CF911F910F91FF90EF90DF90CF909D
:1007600008954DE063E086EE93E00C94A70C1F9291
:100770000F920FB60F9211242F933F938F939F9355
:10078000AF93BF938091F7039091F803A091F90381
:10079000B091FA033091FF03232F2D5F2D3720F402
:1007A0000196A11DB11D05C0232F2A570296A11D38
:1007B000B11D2093FF038093F7039093F803A09358
:1007C000F903B093FA038091FB039091FC03A0918D
:1007D000FD03B091FE030196A11DB11D8093FB03A3
:1007E0009093FC03A093FD03B093FE03BF91AF91E0
:1007F0009F918F913F912F910F900FBE0F901F905F
:1008000018950F931F939FB7F8940091FB031091D5
:10081000FC032091FD033091FE0386B5A89B06C022
:100820008F3F21F00F5F1F4F2F4F3F4F9FBF322F42
:10083000212F102F0027080F111D211D311D42E00F
:10084000000F111F221F331F4A95D1F7B801C901AC
:100850001F910F910895CF92DF92EF92FF92CF9365
:10086000DF936B017C010E940104EB010EC00E942A
:1008700001046C1B7D0B683E734038F081E0C81AA0
:10088000D108E108F108C851DC4FC114D104E104DA
:10089000F10469F7DF91CF91FF90EF90DF90CF9057
:1008A0000895019739F0880F991F880F991F0297B3
:1008B0000197F1F70895789484B5826084BD84B57A
:1008C000816084BD85B5826085BD85B5816085BD4B
:1008D000EEE6F0E0808181608083E1E8F0E0108264
:1008E000808182608083808181608083E0E8F0E0A5
:1008F000808181608083E1EBF0E08081846080838F
:10090000E0EBF0E0808181608083E1E9F0E08081CC
:1009100082608083808181608083E0E9F0E0808173
:1009200081608083E1EAF0E0808182608083808161
:1009300081608083E0EAF0E0808181608083E1E291
:10094000F1E0808182608083808181608083E0E249
:10095000F1E0808181608083EAE7F0E0808184605B
:1009600080838081826080838081816080838081B8
:10097000806880831092C1000895893009F443C0D3
:1009800088F4843029F138F4823059F1E8F4813068
:1009900009F05EC023C0873061F188F5863009F028
:1009A00057C023C08D3009F440C020F48B30A9F12A
:1009B000C0F52DC0803109F442C0813109F443C033
:1009C0008F3009F045C037C0809180008F7703C019
:1009D000809180008F7D80938000089584B58F770B
:1009E00002C084B58F7D84BD08958091B0008F775B
:1009F00003C08091B0008F7D8093B00008958091F6
:100A000090008F7707C0809190008F7D03C0809108
:100A10009000877F8093900008958091A0008F7749
:100A200007C08091A0008F7D03C08091A000877FC8
:100A30008093A0000895809120018F7707C0809156
:100A400020018F7D03C080912001877F809320014A
:100A50000895CF93DF9390E0FC01E65DFE4F449153
:100A6000FC01E059FE4F8491882341F190E0880F0A
:100A7000991FFC01E053FE4F25913491D9018A540E
:100A80009E4FFC0185919491C82FD92F9FB7F89460
:100A90008C91611106C0409584238C9388818423B6
:100AA00008C0623041F4242F209582238C938881E2
:100AB000842B888302C0842B8C939FBFDF91CF91BE
:100AC00008950F931F93CF93DF931F92CDB7DEB797
:100AD000282F30E0F901EC51FF4F8491F901E65DD8
:100AE000FE4F1491F901E059FE4F04910023D1F01B
:100AF000882321F069830E94BD046981E02FF0E022
:100B0000EE0FFF1FEA54FE4F85919491DC019FB7D1
:100B1000F8948C91611103C01095812301C0812B41
:100B20008C939FBF0F90DF91CF911F910F910895EC
:100B3000FC0184859585FC01E05CFF4F20813181BB
:100B4000FC01EE5BFF4F80819181281B390B2F73D5
:100B50003327C9010895FC0184859585FC01E05C7B
:100B6000FF4F40815181FC01EE5BFF4F20813181BD
:100B70004217530741F00190F081E02DE80FF91F73
:100B8000208130E002C02FEF3FEFC9010895FC0142
:100B900084859585FC01E05CFF4F40815181FC011B
:100BA000EE5BFF4F208131814217530771F0A08126
:100BB000B181A80FB91F2C918081918101968F730B
:100BC00099279183808330E002C02FEF3FEFC90166
:100BD0000895FC0186859785FC01E05CFF4FDC01F0
:100BE000AE5BBF4F408151812D913C9111974217CF
:100BF0005307C1F70895CF93DF93FC01268537850E
:100C0000D901A05CBF4F8D919C91119701968F7374
:100C10009927E901CE5BDF4F4881598184179507F9
:100C2000D9F30D90BC91A02DA20FB31F6C93A68594
:100C3000B785A05CBF4F11969C938E93A689B78908
:100C40002C9181E090E0058C02C0880F991F0A94D6
:100C5000E2F7282B2C9381E090E0DF91CF9108956B
:100C6000FB01E05CFF4F208131812F5F3F4F2F73ED
:100C70003327DB01AE5BBF4F4D915C9124173507E5
:100C800039F0A081B181A60FB71F8C9331832083E7
:100C9000089508951F920F920FB60F9211240BB66C
:100CA0000F921BBE2F933F934F935F936F937F934E
:100CB0008F939F93AF93BF93EF93FF938091C60061
:100CC00068E576E00E943006FF91EF91BF91AF9109
:100CD0009F918F917F916F915F914F913F912F9154
:100CE0000F900BBE0F900FBE0F901F901895089598
:100CF0001F920F920FB60F9211240BB60F921BBECC
:100D00002F933F934F935F936F937F938F939F9313
:100D1000AF93BF93EF93FF938091CE0060ED75E0AA
:100D20000E943006FF91EF91BF91AF919F918F91FB
:100D30007F916F915F914F913F912F910F900BBEDB
:100D40000F900FBE0F901F90189508951F920F924D
:100D50000FB60F9211240BB60F921BBE2F933F9329
:100D60004F935F936F937F938F939F93AF93BF93B3
:100D7000EF93FF938091D60068E475E00E943006FF
:100D8000FF91EF91BF91AF919F918F917F916F9163
:100D90005F914F913F912F910F900BBE0F900FBE1F
:100DA0000F901F90189508951F920F920FB60F92F3
:100DB00011240BB60F921BBE2F933F934F935F935B
:100DC0006F937F938F939F93AF93BF93EF93FF9313
:100DD0008091360160EC74E00E943006FF91EF9143
:100DE000BF91AF919F918F917F916F915F914F9143
:100DF0003F912F910F900BBE0F900FBE0F901F9041
:100E000018958DE594E00E949805892B11F00E94B9
:100E100049068EE394E00E949805892B11F00E9408
:100E200077068FE194E00E949805892B11F00E94CB
:100E3000A50680E094E00E949805892B11F00C949F
:100E4000D30608951F920F920FB60F9211240BB67E
:100E50000F921BBE2F933F938F939F93EF93FF931C
:100E60002091540630915506809156069091570670
:100E70002817390731F48091C1008F7D8093C1001C
:100E800014C0E0915606F0915706EC5EF94F2081B0
:100E9000809156069091570601968F7399279093EB
:100EA0005706809356062093C600FF91EF919F91BD
:100EB0008F913F912F910F900BBE0F900FBE0F900F
:100EC0001F9018951F920F920FB60F9211240BB618
:100ED0000F921BBE2F933F938F939F93EF93FF939C
:100EE0002091CC053091CD058091CE059091CF0514
:100EF0002817390731F48091C9008F7D8093C9008C
:100F000014C0E091CE05F091CF05E457FA4F20814F
:100F10008091CE059091CF0501968F73992790937C
:100F2000CF058093CE052093CE00FF91EF919F9146
:100F30008F913F912F910F900BBE0F900FBE0F908E
:100F40001F9018951F920F920FB60F9211240BB697
:100F50000F921BBE2F933F938F939F93EF93FF931B
:100F600020914405309145058091460590914705B3
:100F70002817390731F48091D1008F7D8093D100FB
:100F800014C0E0914605F0914705EC5FFA4F2081CF
:100F9000809146059091470501968F73992790930C
:100FA0004705809346052093D600FF91EF919F91CE
:100FB0008F913F912F910F900BBE0F900FBE0F900E
:100FC0001F9018951F920F920FB60F9211240BB617
:100FD0000F921BBE2F933F938F939F93EF93FF939B
:100FE0002091BC043091BD048091BE049091BF0457
:100FF0002817390731F4809131018F7D80933101B9
:1010000014C0E091BE04F091BF04E458FB4F20816E
:101010008091BE049091BF0401968F73992790939D
:10102000BF048093BE0420933601FF91EF919F91FE
:101030008F913F912F910F900BBE0F900FBE0F908D
:101040001F901895CF92DF92EF92FF92CF93DF938C
:10105000EC016A017B01411581EE580761057105BC
:10106000F9F0EC89FD8981E090E00E8C02C0880FD8
:10107000991F0A94E2F7808360E079E08DE390E0C5
:10108000A70196010E9430152150310941095109EB
:101090005695479537952795211580E1380798F0A3
:1010A000EC89FD89108260E874E88EE190E0A70188
:1010B00096010E9430152150310941095109569578
:1010C000479537952795E889F9893083EA89FB891F
:1010D0002083EE89FF89408181E090E09C010A8CA9
:1010E00002C0220F331F0A94E2F7422B4083EE899D
:1010F000FF8940819C010B8C02C0220F331F0A9490
:10110000E2F7422B4083EE89FF8940819C010C8CE1
:1011100002C0220F331F0A94E2F7422B4083EE896C
:10112000FF8920810D8C02C0880F991F0A94E2F775
:10113000809582238083DF91CF91FF90EF90DF90A5
:10114000CF900895CF931092600410925F0488EEC0
:1011500093E0A0E0B0E08093610490936204A093D8
:101160006304B09364042AED33E030935E0420936B
:101170005D0448E556E050936A044093690444E1F5
:1011800056E050936C0440936B0445EC50E0509350
:101190006E0440936D0444EC50E05093700440930F
:1011A0006F0440EC50E0509372044093710441ECA2
:1011B00050E0509374044093730446EC50E0509315
:1011C000760440937504C4E0C0937704F3E0F09391
:1011D0007804E7E0E093790475E070937A0461E0C5
:1011E00060937B0410924104109240048093420467
:1011F00090934304A0934404B093450430933F0478
:1012000020933E0440ED55E050934B0440934A0434
:101210004CE855E050934D0440934C044DEC50E0A5
:1012200050934F0440934E044CEC50E050935104C3
:101230004093500448EC50E05093530440935204C0
:1012400049EC50E050935504409354044EEC50E068
:101250005093570440935604C0935804F093590494
:10126000E0935A0470935B0460935C041092220430
:10127000109221048093230490932404A0932504C6
:10128000B09326043093200420931F0448E455E0D3
:1012900050932C0440932B0444E055E050932E04CB
:1012A00040932D0445ED50E05093300440932F04BB
:1012B00044ED50E0509332044093310440ED50E04F
:1012C000509334044093330441ED50E0509336047E
:1012D0004093350446ED50E0509338044093370472
:1012E000C0933904F0933A04E0933B0470933C04B8
:1012F00060933D041092030410920204809304044E
:1013000090930504A0930604B0930704309301045E
:101310002093000480EC94E090930D0480930C04DF
:101320008CE794E090930F0480930E0485E391E0A2
:10133000909311048093100484E391E0909313043C
:101340008093120480E391E0909315048093140439
:1013500081E391E0909317048093160486E391E073
:101360009093190480931804C0931A04F0931B04FB
:10137000E0931C0470931D0460931E04CF910895A4
:101380000E945B040E943402C1E0D7E00E949F02E9
:101390002097E1F30E940107F9CFCF92DF92EF92FD
:1013A000FF920F931F93CF93DF936C01EB017A01B0
:1013B000E60EF71E00E010E00BC06991D601ED913A
:1013C000FC910190F081E02DC6011995080F191FBD
:1013D000CE15DF0591F7C801DF91CF911F910F91D5
:1013E000FF90EF90DF90CF9008958EBD0DB407FE73
:1013F000FDCF8EB508950F931F93CF93DF931F9268
:10140000CDB7DEB78C0181E069830E94661080E071
:101410000E946F1084E00E9474106981F80181813C
:101420000F90DF91CF911F910F910C946105FC01FA
:101430008081918189130C9461050895CF92DF9288
:10144000EF92FF920F931F93CF93DF931F921F9200
:10145000CDB7DEB78C01E62EF22E60E049835A83C9
:101460000E94FB098E2D8F710E94F509E82E49819B
:10147000C42E5A81D52EF40E06C08FEF0E94F509B6
:10148000F60181936F01FC10F8CF61E0C8010E9462
:10149000FB098E2D0F900F90DF91CF911F910F912F
:1014A000FF90EF90DF90CF9008951F93CF93DF933D
:1014B000EC01162F60E00E94FB09812F8F710E94C2
:1014C000F5098FEF0E94F509182F61E0CE010E9407
:1014D000FB09812FDF91CF911F910895CF92DF9269
:1014E000EF92FF920F931F93CF93DF931F921F9260
:1014F000CDB7DEB78C01E62EF22E60E049835A8329
:101500000E94FB098E2D8F7180620E94F509E82EE2
:101510004981C42E5A81D52EF40E05C0F601819161
:101520006F010E94F509FC10F9CF61E0C8010E942B
:10153000FB098E2D0F900F90DF91CF911F910F918E
:10154000FF90EF90DF90CF900895EF92FF921F935E
:10155000CF93DF931F92CDB7DEB77C01162F60E0EB
:1015600049830E94FB09812F8F7180620E94F509D7
:10157000182F4981842F0E94F50961E0C7010E945C
:10158000FB09812F0F90DF91CF911F91FF90EF907A
:101590000895AF92BF92CF92DF92EF92FF920F9396
:1015A0001F93CF93DF931F921F92CDB7DEB78C01AD
:1015B000D62EFC01F380E42EF41608F4EF2CF8018B
:1015C0008481811102C0FE1801C0F12C60E0C801C5
:1015D00029837A830E94FB092981822F0E94F509C1
:1015E000C82EAD2C7A81B72EED0C05C0F501819186
:1015F0005F010E94F509EA10F9CF04C080E00E9463
:10160000F509FA94F110FACF61E0C8010E94FB09D4
:101610008C2D0F900F90DF91CF911F910F91FF9024
:10162000EF90DF90CF90BF90AF900895AF92BF92B0
:10163000CF92DF92EF92FF920F931F93CF93DF939E
:101640001F92CDB7DEB78C01D62EFC01F380E42EBD
:10165000F41608F4EF2CF8018481811102C0FE1801
:1016600001C0F12C60E0C80179830E94FB0981E68A
:101670000E94F509C82EAD2C7981B72EED0C06C05D
:101680008FEF0E94F509F50181935F01EA10F8CF11
:1016900004C08FEF0E94F509FA94F110FACF61E0CF
:1016A000C8010E94FB098C2D0F90DF91CF911F91F3
:1016B0000F91FF90EF90DF90CF90BF90AF90089583
:1016C0001F93CF93DF93EC01162F60E00E94FB097C
:1016D000812F0E94F509182F61E0CE010E94FB09BD
:1016E000812FDF91CF911F91089561EE0C94600BD3
:1016F00062EE0C94600B6FEF0C94600B862F90E001
:10170000262F21701F922F93959587958770992783
:101710009F938F9364FB882780F91F928F9365FBBB
:10172000882780F91F928F9366FB882780F91F9284
:101730008F931F926F938AEE91E09F938F930E94F5
:101740003B128DB79EB70E960FB6F8949EBF0FBE94
:101750008DBF0895AF92BF92DF92EF92FF920F93E9
:101760001F93CF93DF931F921F92CDB7DEB78C01EB
:10177000F42EE22ECB0169837A830E94C61169811F
:101780007A81089710F489E001C087E01F928F9357
:101790007F936F93EAE5F2E0FF93EF930E943B1291
:1017A000EF0C0F900F900F900F900F900F9032E66C
:1017B000A32E32E0B32E11C0DF2CD3946F2DC801BD
:1017C0000E94550A1F928F93BF92AF920E943B12C4
:1017D0000F900F900F900F90FD2CFE10EDCF8AE62A
:1017E00092E09F938F930E943B120F900F900F9067
:1017F0000F90DF91CF911F910F91FF90EF90DF90AD
:10180000BF90AF9008952F923F924F925F926F9248
:101810007F928F929F92AF92BF92CF92DF92EF9280
:10182000FF920F931F93CF93DF9300D0CDB7DEB716
:101830006C01542E422E6DB67EB6CB016A837B833B
:101840000E94C6116A817B81089710F489E001C06B
:1018500087E01F928F937F936F938DE692E09F9323
:101860008F930E943B12450C0F900F900F900F909A
:101870000F900F9045E7A42E42E0B42E59E7852E35
:1018800052E0952E3FC08DB789832EB6F6010285B2
:1018900010E08DB79EB7801B910B0FB6F8949EBFDA
:1018A0000FBE8DBFEDB6FEB6EFEFEE1AFE0A352C79
:1018B0003394202FA701652DC6010E941E0ABF92F6
:1018C000AF920E943B120E0D1F1D0F900F900CC087
:1018D000F80180811F928F939F928F920E943B12FA
:1018E0000F900F900F900F90015011090E151F05CA
:1018F00078F79981492F522D0FB6F8945EBF0FBE2D
:101900004DBF532C5410BFCF8EE792E09F938F931F
:101910000E943B120F900F900FB6F8947EBE0FBE40
:101920006DBE0F900F900F90DF91CF911F910F918F
:10193000FF90EF90DF90CF90BF90AF909F908F90EF
:101940007F906F905F904F903F902F900895FC0193
:1019500060834183128280E28383148285E08287E0
:101960000895462F603808F04FE765E00C94A50A0B
:10197000613208F060E2FC0163830895CF93DF9346
:10198000EC0160E00E94170A82E890E00E94510496
:101990006DE1CE010E94550A81FF03C0CE010E9475
:1019A000750B60E0CE010E94550A482F4E7F60E023
:1019B000CE010E94A50A62E0CE010E94550AEFE323
:1019C000F3E0E49141E050E001C0440FEA95EAF70A
:1019D000482B62E0CE010E94A50A84E690E0DF91E8
:1019E000CF910C945104CF93DF93EC0160E00E94FF
:1019F000550A81FD12C060E0CE010E94550A482FB1
:101A0000426060E0CE010E94A50A65E070E080E0DF
:101A100090E0DF91CF910C942B04DF91CF9108954A
:101A2000CF93DF93EC01222311F020EB01C020EAD9
:101A3000CE010E94C90A61E0CE01DF91CF910C94E2
:101A4000170ACF93DF93EC010E94100DCE010E9484
:101A50007B0B8073D9F360E0CE010E94170A40E748
:101A600067E0CE010E94A50A84FF05C0CE010E9456
:101A7000750B80E001C081E0DF91CF91089520E0F7
:101A80000C94210DEF92FF920F931F93CF93DF934E
:101A9000EC017B018F85882399F00E9401040B855E
:101AA0001C852D853E85601B710B820B930B60326C
:101AB000734081059105E0F48F858111EECF18C048
:101AC00067E1CE010E94550A80FD0EC0E114F104C9
:101AD00069F0CE010E947B0B90E095958795877009
:101AE0009927F701808302C080E00AC081E008C026
:101AF0000E9401046B877C878D879E871F86E0CFBD
:101B0000DF91CF911F910F91FF90EF90089560E0CA
:101B100070E00C94420DCF93DF93EC010E94160B02
:101B200040E767E0CE01DF91CF910C94A50A0F93B7
:101B30001F93CF93DF93EC018B012A85AB016AE001
:101B40000E946E0A2A85A80160E1CE010E946E0AF9
:101B50004B8161E1CE01DF91CF911F910F910C94E8
:101B6000A50AFF920F931F93CF93DF93EC01062FEB
:101B7000F42E152F61110BC09C012B5F3F4F4A853E
:101B800050E06F2D712FC9010E94CF1105C0673041
:101B900008F035C0613039F4E02FF0E0EB5BFC4F2A
:101BA00064912A8506C0E62FF0E0EB5BFC4F649160
:101BB00021E04F2D512FCE010E946E0A10E0F80156
:101BC000E55BFC4F64914B81CE010E94A50A62E067
:101BD000CE010E94550AF801E15CFC4F049141E0FE
:101BE00050E001C0440F0A95EAF7482B62E0CE01AD
:101BF000DF91CF911F910F91FF900C94A50ADF9177
:101C0000CF911F910F91FF9008951F93CF93DF9372
:101C1000EC01162F62E00E94550AE12FF0E0E15C32
:101C2000FC4FE49141E050E001C0440FEA95EAF72F
:101C30004095482362E0CE01DF91CF911F910C9433
:101C4000A50ACF93DF93EC010E94F30C60E0CE0174
:101C50000E94550A482F416060E0CE010E94A50A0B
:101C600040E767E0CE010E94A50A8D81882349F0F4
:101C7000AE014B5F5F4F2A856AE0CE010E946E0A7B
:101C800004C060E0CE010E94050E6DE1CE010E940D
:101C9000550A81FF03C0CE010E94750B61E0CE01A1
:101CA000DF91CF910C94170ACF93DF93EC0160E0A2
:101CB0000E94FB0980E50E94F50983E70E94F5096F
:101CC00061E0CE01DF91CF910C94FB09CF93DF93BC
:101CD000EC010E94540E6DE1CE010E94550A482F7E
:101CE00046606DE1CE010E94A50A6CE1CE010E9422
:101CF000550A482F43606CE1CE010E94A50A81E09D
:101D00008C83DF91CF910895CF92DF92FF920F9352
:101D10001F93CF93DF9300D0CDB7DEB78C01F62EA3
:101D2000213208F020E260E0C80129834A835B8306
:101D30000E94FB098F2D8770886A0E94F5094A81ED
:101D4000C42E5B81D52E2981F22EF40E05C0F6013A
:101D500081916F010E94F509FC10F9CF61E0C80183
:101D60000F900F900F90DF91CF911F910F91FF90E7
:101D7000DF90CF900C94FB09662311F04FE301C074
:101D800040E061E00C94A50A66E00E94550A867066
:101D900086950895EF92FF920F931F93CF93DF9351
:101DA0001F92CDB7DEB77C018B0166E00E94550A19
:101DB000282F277D0230110511F4206204C0013064
:101DC000110509F42860422F66E0C70129830E94AB
:101DD000A50A66E0C7010E94550A91E02981821395
:101DE00090E0892F0F90DF91CF911F910F91FF907D
:101DF000EF90089566E00E94550A8872803239F0AB
:101E000021E030E0883029F020E030E002C022E01C
:101E100030E0C90108950F931F93CF93DF93EC0136
:101E20008B0160E00E94550A482F437F0115110580
:101E300031F00130110511F4486001C04C6060E0E0
:101E4000CE01DF91CF911F910F910C94A50ACF93F2
:101E5000DF93EC0188819981891719F061E00E9474
:101E6000290589819881981719F061E00E94290558
:101E70000E94471060E0CE010E94170A61E0CE0187
:101E80000E94FB0965E070E080E090E00E942B0476
:101E90004FE564E0CE010E94A50A62E070E0CE0149
:101EA0000E94CA0E882311F081E08A8360E070E00E
:101EB000CE010E94CA0E62E070E0CE010E940B0FBC
:101EC00040E767E0CE010E94A50A6CE4CE010E94C3
:101ED000B10CCE010E94780BCE010E94750BCE0191
:101EE0000E94F30C60E0CE010E94550A482F4E7FFD
:101EF00060E0CE01DF91CF910C94A50A1F93CF93A0
:101F0000DF93EC0160E00E94550A182F61E0CE01DA
:101F10000E94550A13FD02C0882329F012FF06C053
:101F200022E030E005C020E030E002C021E030E0F7
:101F3000C901DF91CF911F910895CF93DF93EC01F9
:101F40000E947B0B682FCE010E947E0B22E04AE0AC
:101F500061E872E0CE010E94030C24E04CE06EE8E0
:101F600072E0CE010E94AA0B21E040E16BE972E031
:101F7000CE010E94030C26E041E163EA72E0CE014B
:101F80000E94AA0B21E041E06EEA72E0CE010E94BD
:101F9000AA0B21E042E064EB72E0CE010E94AA0BA2
:101FA00021E045E06EEB72E0CE010E94AA0B21E039
:101FB00046E064EC72E0CE010E94AA0B21E040E012
:101FC0006DEC72E0CE010E94AA0B22E04CE164EDC0
:101FD00072E0CE010E94AA0BCE010E94FA0E880F79
:101FE000991F8E519D4FFC01859194919F938F93E2
:101FF00088EE92E09F938F930E943B12EA81F0E07B
:10200000EE0FFF1FE650FD4F859194919F938F93A4
:102010008EEF92E09F938F930E943B12CE010E941D
:102020007E0F880F991F835F9C4FFC0185919491CF
:102030009F938F9383E193E09F938F930E943B1232
:10204000CE010E94C40EE82FF0E0EE0FFF1FEA5D04
:10205000FC4F859194919F938F938EE293E09F9391
:102060008F930E943B128DB79EB740960FB6F8949F
:102070009EBF0FBE8DBFDF91CF9108954F7020E1BD
:10208000629FB0011124462B64E00C94A50A61E024
:1020900084E30E94290561E083E30E94290561E051
:1020A00085E30E94290560E084E30E94610560E009
:1020B00083E30E94610561E085E30E9461058CB5C0
:1020C00080618CBD8CB580648CBD0895811103C086
:1020D0008CB5806202C08CB58F7D8CBD08959CB597
:1020E000937F982B9CBD08952CB5982F93702C7FCF
:1020F000922B9CBD9DB582FB882780F99E7F982BF3
:102100009DBD08950F931F93CF93DF938230910568
:1021100010F482E090E0E0919E06F0919F0620E0AE
:1021200030E0C0E0D0E023C040815181481759071A
:10213000A8F04817590761F482819381209719F01C
:102140009B838A832EC090939F0680939E0629C00E
:102150002115310529F04217530710F0A90102C0DB
:10216000BE01DF0102811381EF019A01F80130976E
:10217000D9F62115310509F1281B390B2430310519
:1021800090F412968D919C9113976115710521F031
:10219000FB019383828304C090939F0680939E06E5
:1021A000FD01329644C0FD01E20FF31F819391932C
:1021B000225031092D933C933AC020919C063091D6
:1021C0009D06232B41F420910202309103023093AB
:1021D0009D0620939C06209100023091010221155A
:1021E000310541F42DB73EB74091040250910502EC
:1021F000241B350BE0919C06F0919D06E217F30736
:10220000A0F42E1B3F0B2817390778F0AC014E5F66
:102210005F4F2417350748F04E0F5F1F50939D0600
:1022200040939C068193919302C0E0E0F0E0CF01DF
:10223000DF91CF911F910F910895EF92FF920F932D
:102240001F93CF93DF93009709F48EC0DC011297A0
:1022500013961C921E921297E0909E06F0909F0695
:10226000E114F10489F42D913C911197280F391F45
:1022700080919C0690919D068217930789F5B093F3
:102280009D06A0939C0670C0E70120E030E001C0ED
:10229000EA01CA17DB0738F44A815B819E014115C8
:1022A0005105B1F722C0AC0142505109FA01D38364
:1022B000C28300811181BC01600F711F6C177D0703
:1022C00061F468817981600F711F6E5F7F4F718348
:1022D00060836A817B81738362832115310529F4D0
:1022E000B0939F06A0939E063FC0F901B383A283DB
:1022F000E90149915991C40FD51FAC17BD0771F47D
:10230000DC019E918E91840F951F029691838083AC
:1023100012968D919C91139793838283A0E0B0E0F5
:1023200002C0D7017C01F701828193810097C9F730
:10233000C701029620813181820F931F20919C0654
:1023400030919D062817390779F4109729F41092D7
:102350009F0610929E0604C013961C921E9212971E
:10236000F0929D06E0929C06DF91CF911F910F9114
:10237000FF90EF900895F8940C94561591110895DC
:1023800081568A5108F4805285580895FC010590C1
:102390000020E9F7809590958E0F9F1F0895FB010F
:1023A000DC0102C001900D9241505040D8F70895D1
:1023B0000F931F93CF93DF93EC018B01009731F4C0
:1023C0006115710519F4E0E0F0E037C06EE070E0EF
:1023D00081E090E00E946B14FC010097A1F380E87B
:1023E00083830115110571F01387028781E88383C8
:1023F0008091A0069091A106892B21F4F093A1066B
:10240000E093A0062097C9F0D187C08783818260BE
:1024100083838091A2069091A306892B71F4F09397
:10242000A306E093A2068091A4069091A506892BAD
:1024300021F4F093A506E093A406CF01DF91CF919C
:102440001F910F910895CF93DF931F921F92CDB7E5
:10245000DEB7FE01389661917191FA83E983AF018D
:102460008091A2069091A3060E9465120F900F9092
:10247000DF91CF9108950F931F93CF93DF931F9216
:102480001F92CDB7DEB7FE013A9661917191FA8342
:10249000E98302EA16E0D8018D919C91DC01139644
:1024A0002C911397286013962C93AF010E9465120C
:1024B000D801ED91FC912381277F23830F900F900A
:1024C000DF91CF911F910F9108952F923F924F92DC
:1024D0005F926F927F928F929F92AF92BF92CF92B4
:1024E000DF92EF92FF920F931F93CF93DF93CDB7BD
:1024F000DEB72C970FB6F894DEBF0FBECDBF7C01C0
:102500006B018A01FC0117821682838181FFC7C19A
:1025100088248394912C8C0E9D1EF7019381F601E3
:1025200093FD859193FF81916F01882309F4B3C1D5
:10253000853239F493FD859193FF81916F01853246
:1025400029F4B70190E00E94A614E7CF712C312C3A
:1025500020E02032A8F48B3261F028F4803251F070
:10256000833271F40BC08D3239F0803349F421602D
:1025700028C02260246025C0286023C0206121C0BB
:1025800027FD27C0382F30533A3078F426FF06C095
:10259000FAE07F9E300D1124732E13C08AE0389E1E
:1025A000300D1124332E20620CC08E3221F426FD12
:1025B00072C1206406C08C3611F4206802C08836CF
:1025C00041F4F60193FD859193FF81916F01811193
:1025D000C0CF982F9554933018F09052933028F430
:1025E0000C5F1F4FFFE3F9830DC0833631F0833753
:1025F00071F0833509F05EC023C0F80180818983C2
:102600000E5F1F4F66246394712C540115C028017E
:10261000F2E04F0E511CF801A080B18026FF03C0EC
:10262000672D70E002C06FEF7FEFC5012C870E941D
:102630009B143C0182012C856FE7262E222218C0B4
:102640002801F2E04F0E511CF801A080B18026FF56
:1026500003C0672D70E002C06FEF7FEFC5012C87CC
:102660000E9489143C012C8550E8252E222A8201E3
:1026700023FC1CC006C0B70180E290E00E94A614B3
:102680003A94832D90E068167906A8F30FC0F501FF
:1026900027FC859127FE81915F01B70190E00E94A0
:1026A000A61431103A94F1E06F1A710861147104A4
:1026B00071F7EEC0843611F0893641F5F80127FF35
:1026C00007C060817181828193810C5F1F4F08C0B8
:1026D00060817181882777FD8095982F0E5F1F4F4D
:1026E0004FE6642E622297FF09C090958095709501
:1026F00061957F4F8F4F9F4FF0E86F2A2AE030E0BF
:10270000A4010E94D214A82EA81844C0853731F421
:102710003FEEB32EB2222AE030E024C099EFB92E6A
:10272000B2228F36B9F020F4883509F0B4C00DC05C
:10273000803721F0883709F0AEC002C020E1B22A0C
:10274000B4FE0BC084E0B82A08C024FF09C0E6E04C
:10275000BE2A06C028E030E005C020E130E002C01B
:1027600020E132E0F801B7FE07C06081718182810B
:1027700093810C5F1F4F06C06081718180E090E003
:102780000E5F1F4FA4010E94D214A82EA8188FE735
:10279000682E6B2066FE0BC0362D3E7FA71450F4CA
:1027A00064FE0AC062FC08C0362D3E7E05C0BA2C0D
:1027B000362D03C0BA2C01C0B72C34FF0DC0FE016A
:1027C000EA0DF11D8081803311F4397E09C032FF9A
:1027D00006C0B394B39404C0832F867809F0B394F1
:1027E00033FD14C030FF0FC07A2CB31460F4730CA7
:1027F0007B18B32C08C0B70180E290E03C870E94B0
:10280000A614B3943C85B314B0F304C0B31410F40D
:102810003B1801C0312C34FF12C0B70180E390E0B7
:102820003C870E94A6143C8532FF1EC031FF03C0C6
:1028300088E590E002C088E790E0B7010CC0832FE4
:10284000867891F031FD02C080E201C08BE237FD55
:102850008DE2B70190E00E94A61406C0B70180E3A4
:1028600090E00E94A6147A94A714C0F3AA94F401ED
:10287000EA0DF11DB701808190E00E94A614A1101D
:10288000F5CF06C0B70180E290E00E94A6143A940A
:102890003110F8CF42CEF7012681378102C02FEFE9
:1028A0003FEFC9012C960FB6F894DEBF0FBECDBF27
:1028B000DF91CF911F910F91FF90EF90DF90CF901C
:1028C000BF90AF909F908F907F906F905F904F9050
:1028D0003F902F9008950F931F93CF93DF93689F9E
:1028E0008001699F100D789F100D1124C8010E946E
:1028F0008210C82FD92F209731F0A80160E070E036
:102900008C2F0E949414CE01DF91CF911F910F91D3
:102910000895FC010590615070400110D8F7809532
:1029200090958E0F9F1F0895DC0101C06D9341505B
:102930005040E0F70895FC01615070400190011093
:10294000D8F7809590958E0F9F1F08950F931F9332
:10295000CF93DF938C01EB018B8181FD03C00FEFDF
:102960001FEF1AC082FF0DC02E813F818C819D8197
:102970002817390764F4E881F9810193F983E88322
:1029800006C0E885F985802F1995892B41F78E813E
:102990009F8101969F838E83C801DF91CF911F9104
:1029A0000F910895FA01AA27283051F1203181F1C1
:1029B000E8946F936E7F6E5F7F4F8F4F9F4FAF4F47
:1029C000B1E03ED0B4E03CD0670F781F891F9A1F5A
:1029D000A11D680F791F8A1F911DA11D6A0F711D0E
:1029E000811D911DA11D20D009F468943F912AE01A
:1029F000269F11243019305D3193DEF6CF01089502
:102A0000462F4770405D4193B3E00FD0C9F7F6CF32
:102A1000462F4F70405D4A3318F0495D31FD4052FA
:102A2000419302D0A9F7EACFB4E0A6959795879590
:102A300077956795BA95C9F700976105710508956F
:102A40009B01AC010A2E069457954795379527951B
:102A5000BA95C9F7620F731F841F951FA01D0895B3
:102A6000A1E21A2EAA1BBB1BFD010DC0AA1FBB1F92
:102A7000EE1FFF1FA217B307E407F50720F0A21B04
:102A8000B30BE40BF50B661F771F881F991F1A9471
:102A900069F760957095809590959B01AC01BD019B
:102AA000CF0108950790F691E02D1994F894FFCF87
:102AB0000000A6062000010200BB03C303CC0331C3
:102AC0004E6F646500324E6F6465000A0D524632E7
:102AD000342F6578616D706C65732F476574746908
:102AE0006E67537461727465642F0A0D00524F4C07
:102AF000453A2025730A0D002A2A2A2050524553B0
:102B0000532027542720746F20626567696E2074F4
:102B100072616E736D697474696E6720746F20746E
:102B20006865206F74686572206E6F64650A0D00B9
:102B30004E6F772073656E64696E6720256420612F
:102B400073207061796C6F61642E2000476F742070
:102B5000626C616E6B20726573706F6E73652E2090
:102B6000726F756E642D747269702064656C617922
:102B70003A20256C75206D6963726F7365636F6EA3
:102B800064730A0D00476F7420726573706F6E7303
:102B9000652025642C20726F756E642D74726970C7
:102BA0002064656C61793A20256C75206D696372CB
:102BB0006F7365636F6E64730A0D0053656E6469AD
:102BC0006E67206661696C65642E0A0D0053656E40
:102BD0007420726573706F6E7365202564200A0D12
:102BE0000073657269616C20617661696C61626C09
:102BF000650A0D002A2A2A204348414E47494E477C
:102C000020544F205452414E534D495420524F4C62
:102C100045202D2D20505245535320275227205414
:102C20004F20535749544348204241434B0A0D001B
:102C30002A2A2A204348414E47494E4720544F20D4
:102C40005245434549564520524F4C45202D2D2095
:102C500050524553532027542720544F205357494F
:102C6000544348204241434B0A0D00696E76616C23
:102C700069640050696E67206F757400506F6E67ED
:102C8000206261636B0000000000FB05CD09980520
:062C9000C705AB05E905D4
:00000001FF
